:0300000002159056
:0C159000787FE4F6D8FD7581570215D76E
:0800030012177C1218B380FBF8
:0B1A1A00E4F58A758CDCD28CD2A92286
:03000B00021A34A2
:031A3400D20E329D
:1017C100C20E0544E544700205430546E546700234
:1017D1000545E53B453A6008E53B153B7002153A86
:1017E100E54245416008E542154270021541051187
:1017F100C3E511940A748094804005E4F511D20B7D
:0118010022C4
:10161C00C20B300108054AE54A70020549E55745F9
:10162C00566008E557155770021556D2CD0512C3F2
:10163C00E5129405748094804008E4F512A20CB372
:10164C00920C0510C3E510940A748094804021120A
:10165C0019EEE4F510A20DB3920DE5487012FF7E61
:10166C00021219A4EF6463700475482822754801AE
:01167C00224B
:10196B00E4F591F59275B04375B14075B24090FEB8
:0E197B0013E054BFF075C810E4F5C9F5CA2298
:071A2D0075C10443C1202232
:10177C00C2AF12196B121A2D121A1A120026121954
:10178C00D7121902753A03753BE8E4F540F54B7531
:10179C004C64F539753001753C01F53DF554F55146
:1017AC00F52FF550F54FF54EF54D12192512187D04
:0517BC00D2CDD2AF22E6
:01004100229C
:1018B30043C110120041300E031217C1300B031243
:1018C300161CE53B453A7003121336120B89E542A9
:0A18D30045417003120E4502004665
:10190200E4FFEFC3944674809480500F74822FF5E5
:1019120082E43402F583E4F00F80E7E4F518F5433E
:02192200F5448A
:0119240022A0
:10133600E54012181B136300136F02137B04138717
:101346000613950713A30813B10C13C00E13FB1055
:1013560013CF1214131314071500001420121902C8
:101366007F3012001B754001221219027F301200D5
:101376001B754003221219027F4712001B75400598
:10138600221219027F7512001BD20975400922121A
:1013960019027F3012001BD20975400A2212190267
:1013A6007F7512001BD20975400B221219027F624B
:1013B60012001B75476275400D221219027F5312E7
:1013C600001B75475375400F22E5486422700812CA
:1013D60019023006458021E5486423703DE547241F
:1013E6008B6008242E70087540042275400722E49D
:1013F600F53FD202221219027F3312001B754011EB
:10140600221219027F3412001B754016221219028D
:0B141600C202AF4712001B75401422F9
:100B8900E54012181B0BB3010BF5030C32050DD50B
:100B9900090DEC0A0E2E0B0C790D0CD10F0D0F114E
:100BA9000D9A140D591600000E44C3E5449405E549
:100BB9004394004027AF18EF3395E0FEC3EF94014B
:100BC900EE648094804015900282E0B4310675404D
:100BD90002020E18E4F540F53A020E1BC3E54494EF
:100BE90064E54394005003020E448039C3E54494FC
:100BF90005E54394004020AF18EF3395E0FEC3EFBD
:100C09009401EE64809480400E900282E064316029
:100C190003020E44020D57C3E5449464E54394006E
:100C29005003020E44E4F54022C3E5449405E5432C
:100C39009400402CAF18EF3395E0FEC3EF9401EE1A
:100C490064809480401A900282E0FFB431047540B8
:100C59000E2275400C753A03753BE88F3FD200228E
:100C6900C3E54494F4E54394015003020E448054CF
:100C7900C3E5449405E5439400403BAF18EF339531
:100C8900E0FEC3EF9401EE648094804029900282D3
:100C9900E0FFB4340775400EE4F53F22EFB4320E9D
:100CA90075400C753A00753BC8F53FD20022754076
:100CB900128F3FD20222C3E54494C8E54394005001
:100CC90003020E4475400C22C3E5449405E54394A0
:100CD900004023AF18EF3395E0FEC3EF9401EE64B3
:100CE9008094804011900282E064316003020E44D6
:100CF900754012D20222C3E54494DCE543940550C1
:100D090003020E448048C3E5449405E5439400403A
:100D19002FAF18EF3395E0FEC3EF9401EE64809492
:100D290080401D900282E0B4310475401522C3E56C
:100D3900449464E54394005003020E44D20880763B
:100D4900C3E5449464E54394005003020E4480666D
:100D5900C3E5449405E54394004024AF18EF339567
:100D6900E0FEC3EF941FEE64809480401275401238
:100D7900E54C24F0F53BE54B34FFF53AD20722C3A5
:100D8900E5449464E54394005003020E44D209807B
:100D990025C3E5449405E5439400401EAF18EF339D
:100DA90095E0FEC3EF9401EE64809480400CD2027A
:100DB900753A00753B0A75401222C3E54494ACE5C7
:100DC90043940D407675401275482222C3E5449438
:100DD90005E54394004064753A00753B6475400726
:100DE900D20222C3E5449405E54394004028AF1894
:100DF900EF3395E0FEC3EF9401EE648094804016D2
:100E0900900282E0B431057540088003754007758A
:100E19003A00753B6422C3E5449464E54394004079
:100E29001A75400722C3E5449405E5439400400B35
:0C0E3900753A00753B64E4F540D20222DB
:1019EE00E5502401F550E4354FF54FE4354EF54EF4
:0619FE00E4354DF54D2219
:030023000218417F
:10184100C0E0C083C082C0D075D008309904C2996D
:10185100C20F30981EC298AF180518EF3395E0FEFD
:1018610074822FF58274023EF583E599F075430089
:0C187100754400D0D0D082D083D0E0328B
:10002600759850758BD0758DFF438E40538EFED2DA
:0B0036008ED2ACE4F519F518C20F22C1
:08001B00200FFDD20F8F992286
:030043000217326F
:10173200C0E0C083C082C0D075D000C006C007E53B
:101742009A30E105539AFDC210E59A30E01F539A90
:10175200FEAF1A051AEF3395E0FE74C82FF58274B6
:10176200023EF583E59BF0754500754600D007D033
:0A17720006D0D0D082D083D0E03240
:1019D700759A1075D7E875D6FF438E14E4F51BF595
:0719E7001AC21043AF0122F8
:081A25002010FDD2108F9B225E
:1018DD008B148A158916AB14AA15A9161218026055
:1018ED00130516E5167002051514F9121802FF12EC
:0518FD001A2580E22223
:1008950044027E2B2B2B004200CA61004201E2611B
:1008A500004800372B6F6B0D0A0D0A004A007F6167
:1008B500742B77736D61630D005F01C341542B5732
:1008C500534D41430A0D2B6F6B3D41354134413347
:1008D5004132413141300D0A0D0A0050017C6174ED
:1008E5002B6E726567656E3D412C6F6E0D0058026B
:1008F5000B41542B4E524547454E3D412C6F6E0AD8
:100905000D2B6F6B0D0A0D0A005801AB61742B6E30
:1009150072656764743D412C434C254D41434352F8
:1009250045470D005A023E41542B6E72656764744B
:100935003D412C254D41430A0D2B6F6B0D0A0D0AC8
:10094500004E027061742B776D6F64653D73746141
:100955000D005600B441542B574D4F44453D73741B
:10096500610A0D2B6F6B0D0A0D0A006024004B61A7
:10097500742B6E6574703D7463702C636C69656E61
:10098500742C38302C31352E3135322E34342E340A
:10099500350D00602C015041542B4E4554503D748B
:1009A50063702C636C69656E742C38302C31352E70
:1009B5003135322E34342E34350A0D2B6F6B0D0A3A
:1009C5000D0A0049018C61742B77736C6B0D005B0C
:1009D500022341542B57534C4B0A0D2B6F6B3D5340
:1009E500534944284D4143290D0A0D0A004E001074
:1009F50061742B7463706469733D6F6E0D005600EE
:100A0500EF41542B5443504449533D6F6E0A0D2B0F
:100A15006F6B0D0A0D0A004B025861742B746370DD
:100A25006469730D0056008941542B544350444961
:100A3500530A0D2B6F6B3D6F6E0D0A0D0A004A00B0
:100A45000061742B7463706C6B0D005500CC4154C0
:100A55002B5443504C4B0A0D2B6F6B3D6F6E0D0A9B
:100A65000D0A0046000A61742B7A0D004E00E14123
:100A7500542B5A0A0D2B6F6B0D0A0D0A004C002BD7
:100A850041542B544350544F3D300D0054012741E0
:100A9500542B544350544F3D300A0D2B6F6B0D0AA8
:100AA5000D0A004D026341542B434D4450573D48B8
:100AB500460D0055009F41542B434D4450573D482A
:100AC500460A0D2B6F6B0D0A0D0A004C01054846B1
:100AD50041542B57534D41430D005F01EC41542BBD
:100AE50057534D41430A0D2B6F6B3D413541344101
:100AF500334132413141300D0A0D0A004C003F4867
:100B05004641542B5443504C4B0D0055013B415429
:100B15002B5443504C4B0A0D2B6F6B3D6F6E0D0ADA
:100B25000D0A0050006F484641542B544350444928
:100B3500533D6F6E0D0056019541542B544350445F
:100B450049533D6F6E0A0D2B6F6B0D0A0D0A004D53
:100B5500001E484641542B5443504449530D0056FA
:100B6500011141542B5443504449530A0D2B6F6BCB
:100B75003D6F6E0D0A0D0A004801E4312E302E300E
:030B85005F3200DC
:101925007532B17533B27534B37535B47536B57571
:1019350037B6121948E4F548F55275410275425813
:03194500D20622A5
:10124900E4F514F5157F43121A2574432515F51590
:10125900E43514F5147F4C121A25744C2515F5152F
:10126900E43514F514AF32121A25E5322515F515B2
:10127900E43514F514AF33121A25E5332515F515A0
:10128900E43514F514AF34121A25E5342515F5158E
:10129900E43514F514AF35121A25E5352515F5157C
:1012A900E43514F514AF36121A25E5362515F5156A
:1012B900E43514F514AF37121A25E5372515F51558
:1012C900E43514F5147F13121A2574132515F51531
:1012D900E43514F5147F48121A2574482515F515B7
:1012E900E43514F514E4F516C3E5169407748094EF
:1012F90080502F74E42516F582E43401F583E0FF6C
:10130900121A2574E42516F582E43401F583E0FF09
:101319003395E0FEEF2515F515EE3514F514051690
:0D13290080C6E514FF121A25AF15021A2523
:10103E00E4F514F5157F43121A2574432515F5159D
:10104E00E43514F5147F4C121A25744C2515F5153C
:10105E00E43514F514AF32121A25E5322515F515BF
:10106E00E43514F514AF33121A25E5332515F515AD
:10107E00E43514F514AF34121A25E5342515F5159B
:10108E00E43514F514AF35121A25E5352515F51589
:10109E00E43514F514AF36121A25E5362515F51577
:1010AE00E43514F514AF37121A25E5372515F51565
:1010BE00E43514F5147F2F121A25742F2515F51506
:1010CE00E43514F5147F34121A2574342515F515EC
:1010DE00E43514F514E4F516C3E5169404748094FF
:1010EE0080501D744D2516F8E6FF121A25744D25F5
:1010FE0016F8E62515F515E43514F514051680D801
:10110E00E4F516C3E516941F74809480502F7482F4
:10111E002516F582E43402F583E0FF121A25748257
:10112E002516F582E43402F583E0FF3395E0FEEFF9
:10113E002515F515EE3514F514051680C6E514FFC4
:08114E00121A25AF15021A2543
:1014E300E4F514F5157F43121A2574432515F515F4
:1014F300E43514F5147F4C121A25744C2515F51593
:10150300E43514F514AF32121A25E5322515F51515
:10151300E43514F514AF33121A25E5332515F51503
:10152300E43514F514AF34121A25E5342515F515F1
:10153300E43514F514AF35121A25E5352515F515DF
:10154300E43514F514AF36121A25E5362515F515CD
:10155300E43514F514AF37121A25E5372515F515BB
:10156300E43514F51475160DAF16121A25E5162574
:1015730015F515E43514F514AF47121A25AF3F12CC
:0D1583001A25E514FF121A25AF15021A25CE
:021156008F14F4
:10115800E4F515F5167F43121A2574432516F5167E
:10116800E43515F5157F4C121A25744C2516F5161D
:10117800E43515F515AF32121A25E5322516F516A0
:10118800E43515F515AF33121A25E5332516F5168E
:10119800E43515F515AF34121A25E5342516F5167C
:1011A800E43515F515AF35121A25E5352516F5166A
:1011B800E43515F515AF36121A25E5362516F51658
:1011C800E43515F515AF37121A25E5372516F51646
:1011D800E43515F5157F44121A2574442516F516BD
:1011E800E43515F5157F47121A2574472516F516A7
:1011F800E43515F515AF14121A25AF14EF3395E041
:10120800FEEF2516F516EE3515F515E4F517C3E5C9
:1012180017940474809480501D744D2517F8E6FFC8
:10122800121A25744D2517F8E62516F516E4351516
:10123800F515051780D8E515FF121A25AF16021AFD
:011248002580
:10142100E4FDF514F515FFE51AFB3395E0FAEB241D
:10143100FEFBEA34FFFAEFC39BEA6480F8748098FC
:10144100501D74C82FF582E43402F583E0FB339517
:10145100E0FAEB2515F515EA3514F5140F80C8E50A
:101461001AFB3395E0FA74C72BF58274023AF583BF
:10147100E0651560028068E514FF74C62BF582747F
:10148100023AF583E06F600280559002C8E0B453E0
:1014910006A3E06456600280469002CAE0653260AD
:1014A10002803C9002CBE06533600280329002CC36
:1014B100E06534600280289002CDE06535600280ED
:1014C1001E9002CEE06536600280149002CFE06586
:1014D100376002800A9002D0E0651A600280007FC6
:0114E1000109
:0114E20022E7
:10167D00E4F53FE54724B9604D24F3601724F1608C
:10168D000C24EE604124FD7044C2068040D20675E4
:10169D0040028039AF3E7E00D3EF94007480948079
:1016AD00402BD3EF940A748094805021EF75F06431
:1016BD00A485F04BF54CE4FFFE121A04AD3EE4FF99
:1016CD00FE1219BF8007754823C202C2000214E33F
:10194800E4FFEFC3944674809480500F74C82FF559
:1019580082E43402F583E4F00F80E7E4F545F546C8
:02196800F51A6E
:01196A00225A
:100E4500E54812181B0E99010EA9030EB9050EF9F6
:100E5500070F09090F390B0F490D0F590F0F6911AD
:100E65000F79130F99150FB9170FD9190EC91B0E45
:100E7500D91D0FE91F0FF1200FFB221019230F19A0
:100E8500240F29260EE9280F892A0FA92C0FC92E10
:100E95000000103D1219487B017A02797E1218DD97
:100EA500754802221219487B017A0179E21218DD90
:100EB500754804221219487B017A00797F1218DDE2
:100EC500754806221219487B017A01797C1218DDD2
:100ED50075481C221219487B017A0179AB1218DD7D
:100EE50075481E221219487B017A0179051218DD11
:100EF500754829221219487B017A0279701218DD8A
:100F0500754808221219487B017A00794B1218DDC1
:100F150075480A221219487B017A00792B1218DDCF
:100F2500754825221219487B017A0279631218DD6A
:100F3500754827221219487B017A00790A1218DDB3
:100F450075480C221219487B017A02797E1218DD48
:100F550075480E221219487B017A0179E21218DDD3
:100F6500754810221219487B017A01798C1218DD17
:100F7500754812221219487B017A0079101218DD82
:100F8500754814221219487B017A00796F1218DD11
:100F950075482B221219487B017A0279581218DDFF
:100FA500754816221219487B017A00791E1218DD40
:100FB50075482D221219487B017A0079001218DD37
:100FC500754818221219487B017A00793F1218DDFD
:100FD50075482F221219487B017A00790A1218DD0B
:100FE50075481A22E5406412704E80401219481265
:100FF500124975482122300708300605C20712102C
:101005003E300806C2087F58800730092BC2097F89
:1010150059021156300219C2021214E3E5476475EC
:101025006004754822227541057542DC7548202209
:09103500300005C2001214E32290
:10004600E54812181B00940200D00401240602D0D1
:100056000803250A04210C047B0E04BD10051812A2
:10006600059B1406451606EF18079E1A01A51C01E6
:10007600F91E07F92108382203792503CD27024EF8
:100086002905F02B069A2D07532F00000894C3E587
:1000960046941EE54594004021AF1AEF3395E0FEE5
:1000A600C3EF9401EE64809480400F9002C8E06430
:1000B60061600302089475480322C3E5469464E52B
:1000C6004594005003020894804BC3E546941EE510
:1000D6004594004032AF1AEF3395E0FEC3EF94012A
:1000E600EE6480948040209002C8E0642B60030296
:1000F6000894A3E0646F6003020894A3E0646B6055
:10010600030208940201A1C3E5469464E545940000
:10011600500302089475410075426402057FC3E5E9
:1001260046941EE5459400405EAF1AEF3395E0FE17
:10013600C3EF9401EE64809480404C9002D2E06458
:100146002B6003020894A3E0646F6003020894A383
:10015600E0646B60030208941219898F329002D80A
:1001660012198C8F339002DA12198C8F349002DCBC
:1001760012198C8F359002DE12198C8F369002E0A0
:1001860012198C8F378068C3E5469464E545940060
:10019600500302089475410075426475480522C3F0
:1001A600E546941EE54594004031AF1AEF3395E0DD
:1001B600FEC3EF9401EE64809480401F9002D8E065
:1001C600642B6003020894A3E0646F600302089442
:1001D600A3E0646B60030208948069C3E5469464F7
:1001E600E545940050030208947541007542647514
:1001F600481B22C3E546941EE54594004032AF1ADB
:10020600EF3395E0FEC3EF9401EE648094804020C6
:100216009002E0E0642B6003020894A3E0646F6040
:1002260003020894A3E0646B6003020894020321AE
:10023600C3E5469464E5459400500302089475416D
:100246000075426475481D22C3E546941EE5459433
:1002560000405FAF1AEF3395E0FEC3EF9401EE6402
:10026600809480404D9002C8E0642B60030208949D
:10027600A3E0646F6003020894A3E0646B6003026A
:1002860008949002CC12198C8F329002CE12198CDF
:100296008F339002D012198C8F349002D212198C9F
:1002A6008F359002D412198C8F361219898F370226
:1002B6000641C3E5469464E545940050030208945C
:1002C60075410075426475482822C3E546941EE5CB
:1002D6004594004032AF1AEF3395E0FEC3EF940128
:1002E600EE6480948040209002D6E0642B60030286
:1002F6000894A3E0646F6003020894A3E0646B6053
:1003060003020894020477C3E5469464E545940025
:10031600500302089475410075426475480722C36C
:10032600E546941EE54594004031AF1AEF3395E05B
:10033600FEC3EF9401EE64809480401F9002ECE0CF
:10034600642B6003020894A3E0646F6003020894C0
:10035600A3E0646B60030208948068C3E546946476
:10036600E545940050030208947541007542647592
:10037600480922C3E546941EE54594004031AF1A6C
:10038600EF3395E0FEC3EF9401EE64809480401F46
:100396009002D4E0642B6003020894A3E0646F60CB
:1003A60003020894A3E0646B60030208948068C3A8
:1003B600E5469464E54594005003020894754100AF
:1003C60075426475482422C3E546941EE5459400AB
:1003D6004031AF1AEF3395E0FEC3EF9401EE64802F
:1003E6009480401F9002D5E0642B6003020894A31A
:1003F600E0646F6003020894A3E0646B6003020884
:1004060094806EC3E5469464E54594005003020863
:100416009475410075426475482622C3E546941ECC
:10042600E54594004037AF1AEF3395E0FEC3EF94ED
:1004360001EE6480948040259002CEE0642B600338
:10044600020894A3E0646F6003020894A3E0646B5F
:100456006003020894F541754296020514C3E54609
:100466009464E54594005003020894754100754272
:100476006475480B22C3E546941EE5459400402169
:10048600AF1AEF3395E0FEC3EF9401EE64809480DB
:10049600400F9002C8E06461600302089475480F3B
:1004A60022C3E5469464E54594005003020894751A
:1004B60041007542648057C3E546941EE5459400A5
:1004C6004038AF1AEF3395E0FEC3EF9401EE648037
:1004D600948040269002C8E0642B6003020894A32F
:1004E600E0646F6003020894A3E0646B6003020893
:1004F60094754102754258020597C3E5469464E532
:10050600459400500302089475410075426475488D
:100516000D22C3E546941EE54594004060AF1AEFF0
:100526003395E0FEC3EF9401EE64809480404E90D4
:1005360002D5E0B44412A3E0B4690DA3E0B4730895
:1005460075410075420A80499002D1E0B42B0DA393
:10055600E0B46F08A3E0B46B030205EC9002C8E0B8
:1005660064736003020894A3E0646F600302089456
:10057600A3E0646B600302089475480122C3E54654
:100586009464E54594005003020894754100754251
:100596006475481122C3E546941EE5459400403231
:1005A600AF1AEF3395E0FEC3EF9401EE64809480BA
:1005B60040209002D6E0642B6003020894A3E06416
:1005C6006F6003020894A3E0646B60030208940260
:1005D6000696C3E5469464E54594005003020894E4
:1005E60075410075426475481322C3E546941EE5BD
:1005F6004594004032AF1AEF3395E0FEC3EF940105
:10060600EE6480948040209002C8E0642B60030270
:100616000894A3E0646F6003020894A3E0646B602F
:10062600030208940206EBC3E5469464E54594008C
:1006360050030208947541037542E875482A22C39F
:10064600E546941EE54594004032AF1AEF3395E037
:10065600FEC3EF9401EE6480948040209002D6E0C1
:10066600643D6003020894A3E0646F60030208948B
:10067600A3E0646E600302089402074FC3E5469444
:1006860064E5459400500302089475410075426480
:1006960075481522C3E546941EE54594004032AFE1
:1006A6001AEF3395E0FEC3EF9401EE648094804028
:1006B600209002CBE0643D6003020894A3E0646FDF
:1006C6006003020894A3E0646E60030208940207C4
:1006D6009AC3E5469464E545940050030208947570
:1006E60041037542E875482C22C3E546941EE5454C
:1006F60094004041AF1AEF3395E0FEC3EF9401EE4C
:1007060064809480402F9002D5E0643D6003020827
:1007160094A3E0646F6003020894A3E0646E600330
:10072600020894754819FF7E02121A047D637F0041
:100736007E020219BFC3E5469464E5459400500362
:1007460002089475410075426475481722C3E54650
:10075600941EE54594004028AF1AEF3395E0FEC39A
:10076600EF9401EE6480948040169002CBE0643DE5
:100776006003020894A3E0646F6003020894805744
:10078600C3E5469464E54594005003020894754118
:10079600037542E875482E22C3E546941EE5459446
:1007A600004038AF1AEF3395E0FEC3EF9401EE64D4
:1007B60080948040269002CEE0642B600302089469
:1007C600A3E0646F6003020894A3E0646B60030215
:1007D6000894F54175429675481F22C3E546946410
:1007E600E54594005003020894754100754264750E
:1007F600481922C3E546941EE54594004025AF1AE4
:10080600EF3395E0FEC3EF9401EE648094804013CD
:10081600121421EF60189002D1E0B4480475482202
:1008260022800BC3E546942CE5459401406075484B
:100836002022C3E546941EE54594004043AF1AEFD7
:100846003395E0FEC3EF9401EE648094804031124C
:100856001421EF60369002D0E0FF3395E0FEEF649E
:100866000E4E7027A3E0F547A3E0F53EA3E0F5386A
:10087600E53E75F00AA485F056F55712167D800BF5
:0F088600C3E5469464E5459400400312194822E7
:1016DD00EFFD7C00C3943074809480400FD3ED9463
:1016ED003974809480500574D02FFF22C3ED94413E
:1016FD00EC648094804010D3ED9446EC648094802B
:10170D00500574C92FFF22C3ED9461EC6480948061
:10171D004010D3ED9466EC64809480500574A92F2D
:05172D00FF227FFF22F6
:081989009002D6E0FFA3E0FD8F
:02199100AE05A1
:101993001216DDEFC454F0FBAF061216DDEF2BFF7A
:0119A3002221
:10187D0012000EE4FFFE1219A4EFFD7C00D39400BC
:10188D0074809480400AD3ED940A74809480400251
:10189D007F01EF75F064A485F04BF54C7F007E025F
:0518AD001219A48F5286
:0118B2002213
:0D000E00E4F5C7F5C5F5C675C380F5C4223D
:1019A40075C78375C5018FC4EEFF8FC375C65A759D
:0A19B400C6A500ADC212000EAF057B
:0119BE002206
:1019BF0075C78375C5028FC4EEFF8FC38DC275C601
:0819CF005A75C6A50002000EC6
:101A040075C78375C5038FC4EEFF8FC375C65A753A
:061A1400C6A50002000E51
:10159C00020003E493A3F8E493A34003F68001F262
:1015AC0008DFF48029E493A3F85407240CC8C33350
:1015BC00C4540F4420C8834004F456800146F6DF1F
:1015CC00E4800B0102040810204080900895E47E12
:1015DC00019360BCA3FF543F30E509541FFEE49314
:1015EC00A360010ECF54C025E060A840B8E493A3DB
:1015FC00FAE493A3F8E493A3C8C582C8CAC583CA06
:10160C00F0A3C8C582C8CAC583CADFE9DEE780BEBD
:010B8800006C
:10180200BB010689828A83E0225002E722BBFE02E4
:09181200E32289828A83E4932217
:10181B00D083D082F8E4937012740193700DA3A35C
:10182B0093F8740193F5828883E473740293686070
:06183B00EFA3A3A380DF70
:00000001FF
